{
  "_format": "hh-sol-artifact-1",
  "contractName": "NFTMarketplace",
  "sourceName": "contracts/NFTMarketplace.sol",
  "abi": [
    {
      "inputs": [
        {
          "internalType": "uint256",
          "name": "_unlockTime",
          "type": "uint256"
        }
      ],
      "stateMutability": "nonpayable",
      "type": "constructor"
    },
    {
      "anonymous": false,
      "inputs": [
        {
          "indexed": true,
          "internalType": "address",
          "name": "owner",
          "type": "address"
        },
        {
          "indexed": true,
          "internalType": "address",
          "name": "approved",
          "type": "address"
        },
        {
          "indexed": true,
          "internalType": "uint256",
          "name": "tokenId",
          "type": "uint256"
        }
      ],
      "name": "Approval",
      "type": "event"
    },
    {
      "anonymous": false,
      "inputs": [
        {
          "indexed": true,
          "internalType": "address",
          "name": "owner",
          "type": "address"
        },
        {
          "indexed": true,
          "internalType": "address",
          "name": "operator",
          "type": "address"
        },
        {
          "indexed": false,
          "internalType": "bool",
          "name": "approved",
          "type": "bool"
        }
      ],
      "name": "ApprovalForAll",
      "type": "event"
    },
    {
      "anonymous": false,
      "inputs": [
        {
          "indexed": false,
          "internalType": "uint256",
          "name": "_fromTokenId",
          "type": "uint256"
        },
        {
          "indexed": false,
          "internalType": "uint256",
          "name": "_toTokenId",
          "type": "uint256"
        }
      ],
      "name": "BatchMetadataUpdate",
      "type": "event"
    },
    {
      "anonymous": false,
      "inputs": [
        {
          "indexed": true,
          "internalType": "uint256",
          "name": "tokenId",
          "type": "uint256"
        },
        {
          "indexed": false,
          "internalType": "address",
          "name": "seller",
          "type": "address"
        },
        {
          "indexed": false,
          "internalType": "address",
          "name": "owner",
          "type": "address"
        },
        {
          "indexed": false,
          "internalType": "uint256",
          "name": "price",
          "type": "uint256"
        },
        {
          "indexed": false,
          "internalType": "bool",
          "name": "sold",
          "type": "bool"
        }
      ],
      "name": "MarketItemCreated",
      "type": "event"
    },
    {
      "anonymous": false,
      "inputs": [
        {
          "indexed": false,
          "internalType": "uint256",
          "name": "_tokenId",
          "type": "uint256"
        }
      ],
      "name": "MetadataUpdate",
      "type": "event"
    },
    {
      "anonymous": false,
      "inputs": [
        {
          "indexed": true,
          "internalType": "address",
          "name": "from",
          "type": "address"
        },
        {
          "indexed": true,
          "internalType": "address",
          "name": "to",
          "type": "address"
        },
        {
          "indexed": true,
          "internalType": "uint256",
          "name": "tokenId",
          "type": "uint256"
        }
      ],
      "name": "Transfer",
      "type": "event"
    },
    {
      "anonymous": false,
      "inputs": [
        {
          "indexed": false,
          "internalType": "uint256",
          "name": "amount",
          "type": "uint256"
        },
        {
          "indexed": false,
          "internalType": "uint256",
          "name": "when",
          "type": "uint256"
        }
      ],
      "name": "Withdrawal",
      "type": "event"
    },
    {
      "inputs": [
        {
          "internalType": "address",
          "name": "to",
          "type": "address"
        },
        {
          "internalType": "uint256",
          "name": "tokenId",
          "type": "uint256"
        }
      ],
      "name": "approve",
      "outputs": [],
      "stateMutability": "nonpayable",
      "type": "function"
    },
    {
      "inputs": [
        {
          "internalType": "address",
          "name": "owner",
          "type": "address"
        }
      ],
      "name": "balanceOf",
      "outputs": [
        {
          "internalType": "uint256",
          "name": "",
          "type": "uint256"
        }
      ],
      "stateMutability": "view",
      "type": "function"
    },
    {
      "inputs": [
        {
          "internalType": "uint256",
          "name": "tokenId",
          "type": "uint256"
        }
      ],
      "name": "createMarketSale",
      "outputs": [],
      "stateMutability": "payable",
      "type": "function"
    },
    {
      "inputs": [
        {
          "internalType": "string",
          "name": "tokenURI",
          "type": "string"
        },
        {
          "internalType": "uint256",
          "name": "price",
          "type": "uint256"
        }
      ],
      "name": "createToken",
      "outputs": [
        {
          "internalType": "uint256",
          "name": "",
          "type": "uint256"
        }
      ],
      "stateMutability": "payable",
      "type": "function"
    },
    {
      "inputs": [],
      "name": "fetchItemsListed",
      "outputs": [
        {
          "components": [
            {
              "internalType": "uint256",
              "name": "tokenId",
              "type": "uint256"
            },
            {
              "internalType": "address payable",
              "name": "seller",
              "type": "address"
            },
            {
              "internalType": "address payable",
              "name": "owner",
              "type": "address"
            },
            {
              "internalType": "uint256",
              "name": "price",
              "type": "uint256"
            },
            {
              "internalType": "bool",
              "name": "sold",
              "type": "bool"
            }
          ],
          "internalType": "struct NFTMarketplace.MarketItem[]",
          "name": "",
          "type": "tuple[]"
        }
      ],
      "stateMutability": "view",
      "type": "function"
    },
    {
      "inputs": [],
      "name": "fetchMarketItems",
      "outputs": [
        {
          "components": [
            {
              "internalType": "uint256",
              "name": "tokenId",
              "type": "uint256"
            },
            {
              "internalType": "address payable",
              "name": "seller",
              "type": "address"
            },
            {
              "internalType": "address payable",
              "name": "owner",
              "type": "address"
            },
            {
              "internalType": "uint256",
              "name": "price",
              "type": "uint256"
            },
            {
              "internalType": "bool",
              "name": "sold",
              "type": "bool"
            }
          ],
          "internalType": "struct NFTMarketplace.MarketItem[]",
          "name": "",
          "type": "tuple[]"
        }
      ],
      "stateMutability": "view",
      "type": "function"
    },
    {
      "inputs": [],
      "name": "fetchMyNFTs",
      "outputs": [
        {
          "components": [
            {
              "internalType": "uint256",
              "name": "tokenId",
              "type": "uint256"
            },
            {
              "internalType": "address payable",
              "name": "seller",
              "type": "address"
            },
            {
              "internalType": "address payable",
              "name": "owner",
              "type": "address"
            },
            {
              "internalType": "uint256",
              "name": "price",
              "type": "uint256"
            },
            {
              "internalType": "bool",
              "name": "sold",
              "type": "bool"
            }
          ],
          "internalType": "struct NFTMarketplace.MarketItem[]",
          "name": "",
          "type": "tuple[]"
        }
      ],
      "stateMutability": "view",
      "type": "function"
    },
    {
      "inputs": [
        {
          "internalType": "uint256",
          "name": "tokenId",
          "type": "uint256"
        }
      ],
      "name": "getApproved",
      "outputs": [
        {
          "internalType": "address",
          "name": "",
          "type": "address"
        }
      ],
      "stateMutability": "view",
      "type": "function"
    },
    {
      "inputs": [],
      "name": "getListingPrice",
      "outputs": [
        {
          "internalType": "uint256",
          "name": "",
          "type": "uint256"
        }
      ],
      "stateMutability": "view",
      "type": "function"
    },
    {
      "inputs": [],
      "name": "getOwner",
      "outputs": [
        {
          "internalType": "address",
          "name": "",
          "type": "address"
        }
      ],
      "stateMutability": "view",
      "type": "function"
    },
    {
      "inputs": [
        {
          "internalType": "address",
          "name": "owner",
          "type": "address"
        },
        {
          "internalType": "address",
          "name": "operator",
          "type": "address"
        }
      ],
      "name": "isApprovedForAll",
      "outputs": [
        {
          "internalType": "bool",
          "name": "",
          "type": "bool"
        }
      ],
      "stateMutability": "view",
      "type": "function"
    },
    {
      "inputs": [],
      "name": "name",
      "outputs": [
        {
          "internalType": "string",
          "name": "",
          "type": "string"
        }
      ],
      "stateMutability": "view",
      "type": "function"
    },
    {
      "inputs": [
        {
          "internalType": "uint256",
          "name": "tokenId",
          "type": "uint256"
        }
      ],
      "name": "ownerOf",
      "outputs": [
        {
          "internalType": "address",
          "name": "",
          "type": "address"
        }
      ],
      "stateMutability": "view",
      "type": "function"
    },
    {
      "inputs": [
        {
          "internalType": "uint256",
          "name": "tokenId",
          "type": "uint256"
        },
        {
          "internalType": "uint256",
          "name": "price",
          "type": "uint256"
        }
      ],
      "name": "resellToken",
      "outputs": [],
      "stateMutability": "payable",
      "type": "function"
    },
    {
      "inputs": [
        {
          "internalType": "address",
          "name": "from",
          "type": "address"
        },
        {
          "internalType": "address",
          "name": "to",
          "type": "address"
        },
        {
          "internalType": "uint256",
          "name": "tokenId",
          "type": "uint256"
        }
      ],
      "name": "safeTransferFrom",
      "outputs": [],
      "stateMutability": "nonpayable",
      "type": "function"
    },
    {
      "inputs": [
        {
          "internalType": "address",
          "name": "from",
          "type": "address"
        },
        {
          "internalType": "address",
          "name": "to",
          "type": "address"
        },
        {
          "internalType": "uint256",
          "name": "tokenId",
          "type": "uint256"
        },
        {
          "internalType": "bytes",
          "name": "data",
          "type": "bytes"
        }
      ],
      "name": "safeTransferFrom",
      "outputs": [],
      "stateMutability": "nonpayable",
      "type": "function"
    },
    {
      "inputs": [
        {
          "internalType": "address",
          "name": "operator",
          "type": "address"
        },
        {
          "internalType": "bool",
          "name": "approved",
          "type": "bool"
        }
      ],
      "name": "setApprovalForAll",
      "outputs": [],
      "stateMutability": "nonpayable",
      "type": "function"
    },
    {
      "inputs": [
        {
          "internalType": "bytes4",
          "name": "interfaceId",
          "type": "bytes4"
        }
      ],
      "name": "supportsInterface",
      "outputs": [
        {
          "internalType": "bool",
          "name": "",
          "type": "bool"
        }
      ],
      "stateMutability": "view",
      "type": "function"
    },
    {
      "inputs": [],
      "name": "symbol",
      "outputs": [
        {
          "internalType": "string",
          "name": "",
          "type": "string"
        }
      ],
      "stateMutability": "view",
      "type": "function"
    },
    {
      "inputs": [
        {
          "internalType": "uint256",
          "name": "tokenId",
          "type": "uint256"
        }
      ],
      "name": "tokenURI",
      "outputs": [
        {
          "internalType": "string",
          "name": "",
          "type": "string"
        }
      ],
      "stateMutability": "view",
      "type": "function"
    },
    {
      "inputs": [
        {
          "internalType": "address",
          "name": "from",
          "type": "address"
        },
        {
          "internalType": "address",
          "name": "to",
          "type": "address"
        },
        {
          "internalType": "uint256",
          "name": "tokenId",
          "type": "uint256"
        }
      ],
      "name": "transferFrom",
      "outputs": [],
      "stateMutability": "nonpayable",
      "type": "function"
    },
    {
      "inputs": [],
      "name": "unlockTime",
      "outputs": [
        {
          "internalType": "uint256",
          "name": "",
          "type": "uint256"
        }
      ],
      "stateMutability": "view",
      "type": "function"
    },
    {
      "inputs": [
        {
          "internalType": "uint256",
          "name": "_listingPrice",
          "type": "uint256"
        }
      ],
      "name": "updateListingPrice",
      "outputs": [],
      "stateMutability": "payable",
      "type": "function"
    },
    {
      "inputs": [],
      "name": "withdraw",
      "outputs": [],
      "stateMutability": "nonpayable",
      "type": "function"
    }
  ],
  "bytecode": "0x60806040526658d15e17628000600a553480156200001c57600080fd5b5060405162004ca238038062004ca28339818101604052810190620000429190620001a8565b6040518060400160405280601081526020017f4d657461766572736520546f6b656e73000000000000000000000000000000008152506040518060400160405280600481526020017f4d455454000000000000000000000000000000000000000000000000000000008152508160009081620000bf91906200044a565b508060019081620000d191906200044a565b50505042811162000119576040517f08c379a00000000000000000000000000000000000000000000000000000000081526004016200011090620005b8565b60405180910390fd5b8060098190555033600b60006101000a81548173ffffffffffffffffffffffffffffffffffffffff021916908373ffffffffffffffffffffffffffffffffffffffff16021790555050620005da565b600080fd5b6000819050919050565b62000182816200016d565b81146200018e57600080fd5b50565b600081519050620001a28162000177565b92915050565b600060208284031215620001c157620001c062000168565b5b6000620001d18482850162000191565b91505092915050565b600081519050919050565b7f4e487b7100000000000000000000000000000000000000000000000000000000600052604160045260246000fd5b7f4e487b7100000000000000000000000000000000000000000000000000000000600052602260045260246000fd5b600060028204905060018216806200025c57607f821691505b60208210810362000272576200027162000214565b5b50919050565b60008190508160005260206000209050919050565b60006020601f8301049050919050565b600082821b905092915050565b600060088302620002dc7fffffffffffffffffffffffffffffffffffffffffffffffffffffffffffffffff826200029d565b620002e886836200029d565b95508019841693508086168417925050509392505050565b6000819050919050565b60006200032b620003256200031f846200016d565b62000300565b6200016d565b9050919050565b6000819050919050565b62000347836200030a565b6200035f620003568262000332565b848454620002aa565b825550505050565b600090565b6200037662000367565b620003838184846200033c565b505050565b5b81811015620003ab576200039f6000826200036c565b60018101905062000389565b5050565b601f821115620003fa57620003c48162000278565b620003cf846200028d565b81016020851015620003df578190505b620003f7620003ee856200028d565b83018262000388565b50505b505050565b600082821c905092915050565b60006200041f60001984600802620003ff565b1980831691505092915050565b60006200043a83836200040c565b9150826002028217905092915050565b6200045582620001da565b67ffffffffffffffff811115620004715762000470620001e5565b5b6200047d825462000243565b6200048a828285620003af565b600060209050601f831160018114620004c25760008415620004ad578287015190505b620004b985826200042c565b86555062000529565b601f198416620004d28662000278565b60005b82811015620004fc57848901518255600182019150602085019450602081019050620004d5565b868310156200051c578489015162000518601f8916826200040c565b8355505b6001600288020188555050505b505050505050565b600082825260208201905092915050565b7f556e6c6f636b2074696d652073686f756c6420626520696e207468652066757460008201527f7572650000000000000000000000000000000000000000000000000000000000602082015250565b6000620005a060238362000531565b9150620005ad8262000542565b604082019050919050565b60006020820190508181036000830152620005d38162000591565b9050919050565b6146b880620005ea6000396000f3fe60806040526004361061014b5760003560e01c80636352211e116100b6578063ae677aa31161006f578063ae677aa314610487578063b88d4fde146104a3578063be9af536146104cc578063c87b56dd146104e8578063e219fc7514610525578063e985e9c5146105415761014b565b80636352211e1461035e57806370a082311461039b57806372b3b620146103d8578063893d20e81461040857806395d89b4114610433578063a22cb4651461045e5761014b565b8063202e374011610108578063202e37401461027457806323b872dd1461029f578063251c1aa3146102c85780633ccfd60b146102f357806342842e0e1461030a57806345f8fa80146103335761014b565b806301ffc9a71461015057806306fdde031461018d578063081812fc146101b8578063095ea7b3146101f55780630f08efe01461021e57806312e8558514610249575b600080fd5b34801561015c57600080fd5b5061017760048036038101906101729190612e0f565b61057e565b6040516101849190612e57565b60405180910390f35b34801561019957600080fd5b506101a26105df565b6040516101af9190612f02565b60405180910390f35b3480156101c457600080fd5b506101df60048036038101906101da9190612f5a565b610671565b6040516101ec9190612fc8565b60405180910390f35b34801561020157600080fd5b5061021c6004803603810190610217919061300f565b6106b7565b005b34801561022a57600080fd5b506102336107ce565b60405161024091906131a5565b60405180910390f35b34801561025557600080fd5b5061025e610a36565b60405161026b91906131d6565b60405180910390f35b34801561028057600080fd5b50610289610a40565b60405161029691906131a5565b60405180910390f35b3480156102ab57600080fd5b506102c660048036038101906102c191906131f1565b610d2c565b005b3480156102d457600080fd5b506102dd610d8c565b6040516102ea91906131d6565b60405180910390f35b3480156102ff57600080fd5b50610308610d92565b005b34801561031657600080fd5b50610331600480360381019061032c91906131f1565b610f54565b005b34801561033f57600080fd5b50610348610f74565b60405161035591906131a5565b60405180910390f35b34801561036a57600080fd5b5061038560048036038101906103809190612f5a565b611260565b6040516103929190612fc8565b60405180910390f35b3480156103a757600080fd5b506103c260048036038101906103bd9190613244565b6112e6565b6040516103cf91906131d6565b60405180910390f35b6103f260048036038101906103ed91906133a6565b61139d565b6040516103ff91906131d6565b60405180910390f35b34801561041457600080fd5b5061041d6113df565b60405161042a9190612fc8565b60405180910390f35b34801561043f57600080fd5b50610448611409565b6040516104559190612f02565b60405180910390f35b34801561046a57600080fd5b506104856004803603810190610480919061342e565b61149b565b005b6104a1600480360381019061049c9190612f5a565b6114b1565b005b3480156104af57600080fd5b506104ca60048036038101906104c5919061350f565b61154b565b005b6104e660048036038101906104e19190612f5a565b6115ad565b005b3480156104f457600080fd5b5061050f600480360381019061050a9190612f5a565b6117e5565b60405161051c9190612f02565b60405180910390f35b61053f600480360381019061053a9190613592565b6118f7565b005b34801561054d57600080fd5b50610568600480360381019061056391906135d2565b611aec565b6040516105759190612e57565b60405180910390f35b6000634906490660e01b7bffffffffffffffffffffffffffffffffffffffffffffffffffffffff1916827bffffffffffffffffffffffffffffffffffffffffffffffffffffffff191614806105d857506105d782611b80565b5b9050919050565b6060600080546105ee90613641565b80601f016020809104026020016040519081016040528092919081815260200182805461061a90613641565b80156106675780601f1061063c57610100808354040283529160200191610667565b820191906000526020600020905b81548152906001019060200180831161064a57829003601f168201915b5050505050905090565b600061067c82611c62565b6004600083815260200190815260200160002060009054906101000a900473ffffffffffffffffffffffffffffffffffffffff169050919050565b60006106c282611260565b90508073ffffffffffffffffffffffffffffffffffffffff168373ffffffffffffffffffffffffffffffffffffffff1603610732576040517f08c379a0000000000000000000000000000000000000000000000000000000008152600401610729906136e4565b60405180910390fd5b8073ffffffffffffffffffffffffffffffffffffffff16610751611cad565b73ffffffffffffffffffffffffffffffffffffffff161480610780575061077f8161077a611cad565b611aec565b5b6107bf576040517f08c379a00000000000000000000000000000000000000000000000000000000081526004016107b690613776565b60405180910390fd5b6107c98383611cb5565b505050565b606060006107dc6007611d6e565b905060006107ea6008611d6e565b6107f46007611d6e565b6107fe91906137c5565b90506000808267ffffffffffffffff81111561081d5761081c61327b565b5b60405190808252806020026020018201604052801561085657816020015b610843612d46565b81526020019060019003908161083b5790505b50905060005b84811015610a2b573073ffffffffffffffffffffffffffffffffffffffff16600c600060018461088c91906137f9565b815260200190815260200160002060020160009054906101000a900473ffffffffffffffffffffffffffffffffffffffff1673ffffffffffffffffffffffffffffffffffffffff1603610a185760006001826108e891906137f9565b90506000600c60008381526020019081526020016000209050806040518060a0016040529081600082015481526020016001820160009054906101000a900473ffffffffffffffffffffffffffffffffffffffff1673ffffffffffffffffffffffffffffffffffffffff1673ffffffffffffffffffffffffffffffffffffffff1681526020016002820160009054906101000a900473ffffffffffffffffffffffffffffffffffffffff1673ffffffffffffffffffffffffffffffffffffffff1673ffffffffffffffffffffffffffffffffffffffff168152602001600382015481526020016004820160009054906101000a900460ff1615151515815250508486815181106109fb576109fa61382d565b5b6020026020010181905250600185610a1391906137f9565b945050505b8080610a239061385c565b91505061085c565b508094505050505090565b6000600a54905090565b60606000610a4e6007611d6e565b905060008060005b83811015610af6573373ffffffffffffffffffffffffffffffffffffffff16600c6000600184610a8691906137f9565b815260200190815260200160002060020160009054906101000a900473ffffffffffffffffffffffffffffffffffffffff1673ffffffffffffffffffffffffffffffffffffffff1603610ae357600183610ae091906137f9565b92505b8080610aee9061385c565b915050610a56565b5060008267ffffffffffffffff811115610b1357610b1261327b565b5b604051908082528060200260200182016040528015610b4c57816020015b610b39612d46565b815260200190600190039081610b315790505b50905060005b84811015610d21573373ffffffffffffffffffffffffffffffffffffffff16600c6000600184610b8291906137f9565b815260200190815260200160002060020160009054906101000a900473ffffffffffffffffffffffffffffffffffffffff1673ffffffffffffffffffffffffffffffffffffffff1603610d0e576000600182610bde91906137f9565b90506000600c60008381526020019081526020016000209050806040518060a0016040529081600082015481526020016001820160009054906101000a900473ffffffffffffffffffffffffffffffffffffffff1673ffffffffffffffffffffffffffffffffffffffff1673ffffffffffffffffffffffffffffffffffffffff1681526020016002820160009054906101000a900473ffffffffffffffffffffffffffffffffffffffff1673ffffffffffffffffffffffffffffffffffffffff1673ffffffffffffffffffffffffffffffffffffffff168152602001600382015481526020016004820160009054906101000a900460ff161515151581525050848681518110610cf157610cf061382d565b5b6020026020010181905250600185610d0991906137f9565b945050505b8080610d199061385c565b915050610b52565b508094505050505090565b610d3d610d37611cad565b82611d7c565b610d7c576040517f08c379a0000000000000000000000000000000000000000000000000000000008152600401610d7390613916565b60405180910390fd5b610d87838383611e11565b505050565b60095481565b600b60009054906101000a900473ffffffffffffffffffffffffffffffffffffffff1673ffffffffffffffffffffffffffffffffffffffff163373ffffffffffffffffffffffffffffffffffffffff1614610e22576040517f08c379a0000000000000000000000000000000000000000000000000000000008152600401610e1990613982565b60405180910390fd5b600954421015610e67576040517f08c379a0000000000000000000000000000000000000000000000000000000008152600401610e5e906139ee565b60405180910390fd5b600047905060008111610eaf576040517f08c379a0000000000000000000000000000000000000000000000000000000008152600401610ea690613a5a565b60405180910390fd5b7fbf2ed60bd5b5965d685680c01195c9514e4382e28e3a5a2d2d5244bf59411b938142604051610ee0929190613a7a565b60405180910390a1600b60009054906101000a900473ffffffffffffffffffffffffffffffffffffffff1673ffffffffffffffffffffffffffffffffffffffff166108fc829081150290604051600060405180830381858888f19350505050158015610f50573d6000803e3d6000fd5b5050565b610f6f8383836040518060200160405280600081525061154b565b505050565b60606000610f826007611d6e565b905060008060005b8381101561102a573373ffffffffffffffffffffffffffffffffffffffff16600c6000600184610fba91906137f9565b815260200190815260200160002060010160009054906101000a900473ffffffffffffffffffffffffffffffffffffffff1673ffffffffffffffffffffffffffffffffffffffff16036110175760018361101491906137f9565b92505b80806110229061385c565b915050610f8a565b5060008267ffffffffffffffff8111156110475761104661327b565b5b60405190808252806020026020018201604052801561108057816020015b61106d612d46565b8152602001906001900390816110655790505b50905060005b84811015611255573373ffffffffffffffffffffffffffffffffffffffff16600c60006001846110b691906137f9565b815260200190815260200160002060010160009054906101000a900473ffffffffffffffffffffffffffffffffffffffff1673ffffffffffffffffffffffffffffffffffffffff160361124257600060018261111291906137f9565b90506000600c60008381526020019081526020016000209050806040518060a0016040529081600082015481526020016001820160009054906101000a900473ffffffffffffffffffffffffffffffffffffffff1673ffffffffffffffffffffffffffffffffffffffff1673ffffffffffffffffffffffffffffffffffffffff1681526020016002820160009054906101000a900473ffffffffffffffffffffffffffffffffffffffff1673ffffffffffffffffffffffffffffffffffffffff1673ffffffffffffffffffffffffffffffffffffffff168152602001600382015481526020016004820160009054906101000a900460ff1615151515815250508486815181106112255761122461382d565b5b602002602001018190525060018561123d91906137f9565b945050505b808061124d9061385c565b915050611086565b508094505050505090565b60008061126c8361210a565b9050600073ffffffffffffffffffffffffffffffffffffffff168173ffffffffffffffffffffffffffffffffffffffff16036112dd576040517f08c379a00000000000000000000000000000000000000000000000000000000081526004016112d490613aef565b60405180910390fd5b80915050919050565b60008073ffffffffffffffffffffffffffffffffffffffff168273ffffffffffffffffffffffffffffffffffffffff1603611356576040517f08c379a000000000000000000000000000000000000000000000000000000000815260040161134d90613b81565b60405180910390fd5b600360008373ffffffffffffffffffffffffffffffffffffffff1673ffffffffffffffffffffffffffffffffffffffff168152602001908152602001600020549050919050565b60006113a96007612147565b60006113b56007611d6e565b90506113c1338261215d565b6113cb818561237a565b6113d5818461241e565b8091505092915050565b6000600b60009054906101000a900473ffffffffffffffffffffffffffffffffffffffff16905090565b60606001805461141890613641565b80601f016020809104026020016040519081016040528092919081815260200182805461144490613641565b80156114915780601f1061146657610100808354040283529160200191611491565b820191906000526020600020905b81548152906001019060200180831161147457829003601f168201915b5050505050905090565b6114ad6114a6611cad565b8383612621565b5050565b3373ffffffffffffffffffffffffffffffffffffffff16600b60009054906101000a900473ffffffffffffffffffffffffffffffffffffffff1673ffffffffffffffffffffffffffffffffffffffff1614611541576040517f08c379a000000000000000000000000000000000000000000000000000000000815260040161153890613c13565b60405180910390fd5b80600a8190555050565b61155c611556611cad565b83611d7c565b61159b576040517f08c379a000000000000000000000000000000000000000000000000000000000815260040161159290613916565b60405180910390fd5b6115a78484848461278d565b50505050565b6000600c600083815260200190815260200160002060030154905080341461160a576040517f08c379a000000000000000000000000000000000000000000000000000000000815260040161160190613ca5565b60405180910390fd5b33600c600084815260200190815260200160002060020160006101000a81548173ffffffffffffffffffffffffffffffffffffffff021916908373ffffffffffffffffffffffffffffffffffffffff1602179055506001600c600084815260200190815260200160002060040160006101000a81548160ff0219169083151502179055506000600c600084815260200190815260200160002060010160006101000a81548173ffffffffffffffffffffffffffffffffffffffff021916908373ffffffffffffffffffffffffffffffffffffffff1602179055506116ee6008612147565b6116f9303384611e11565b600b60009054906101000a900473ffffffffffffffffffffffffffffffffffffffff1673ffffffffffffffffffffffffffffffffffffffff166108fc600a549081150290604051600060405180830381858888f19350505050158015611763573d6000803e3d6000fd5b50600c600083815260200190815260200160002060010160009054906101000a900473ffffffffffffffffffffffffffffffffffffffff1673ffffffffffffffffffffffffffffffffffffffff166108fc349081150290604051600060405180830381858888f193505050501580156117e0573d6000803e3d6000fd5b505050565b60606117f082611c62565b600060066000848152602001908152602001600020805461181090613641565b80601f016020809104026020016040519081016040528092919081815260200182805461183c90613641565b80156118895780601f1061185e57610100808354040283529160200191611889565b820191906000526020600020905b81548152906001019060200180831161186c57829003601f168201915b50505050509050600061189a6127e9565b905060008151036118af5781925050506118f2565b6000825111156118e45780826040516020016118cc929190613d01565b604051602081830303815290604052925050506118f2565b6118ed84612800565b925050505b919050565b3373ffffffffffffffffffffffffffffffffffffffff16600c600084815260200190815260200160002060020160009054906101000a900473ffffffffffffffffffffffffffffffffffffffff1673ffffffffffffffffffffffffffffffffffffffff161461199b576040517f08c379a000000000000000000000000000000000000000000000000000000000815260040161199290613d97565b60405180910390fd5b600a5434146119df576040517f08c379a00000000000000000000000000000000000000000000000000000000081526004016119d690613e29565b60405180910390fd5b6000600c600084815260200190815260200160002060040160006101000a81548160ff02191690831515021790555080600c60008481526020019081526020016000206003018190555033600c600084815260200190815260200160002060010160006101000a81548173ffffffffffffffffffffffffffffffffffffffff021916908373ffffffffffffffffffffffffffffffffffffffff16021790555030600c600084815260200190815260200160002060020160006101000a81548173ffffffffffffffffffffffffffffffffffffffff021916908373ffffffffffffffffffffffffffffffffffffffff160217905550611add6008612868565b611ae8333084611e11565b5050565b6000600560008473ffffffffffffffffffffffffffffffffffffffff1673ffffffffffffffffffffffffffffffffffffffff16815260200190815260200160002060008373ffffffffffffffffffffffffffffffffffffffff1673ffffffffffffffffffffffffffffffffffffffff16815260200190815260200160002060009054906101000a900460ff16905092915050565b60007f80ac58cd000000000000000000000000000000000000000000000000000000007bffffffffffffffffffffffffffffffffffffffffffffffffffffffff1916827bffffffffffffffffffffffffffffffffffffffffffffffffffffffff19161480611c4b57507f5b5e139f000000000000000000000000000000000000000000000000000000007bffffffffffffffffffffffffffffffffffffffffffffffffffffffff1916827bffffffffffffffffffffffffffffffffffffffffffffffffffffffff1916145b80611c5b5750611c5a826128c4565b5b9050919050565b611c6b8161292e565b611caa576040517f08c379a0000000000000000000000000000000000000000000000000000000008152600401611ca190613aef565b60405180910390fd5b50565b600033905090565b816004600083815260200190815260200160002060006101000a81548173ffffffffffffffffffffffffffffffffffffffff021916908373ffffffffffffffffffffffffffffffffffffffff160217905550808273ffffffffffffffffffffffffffffffffffffffff16611d2883611260565b73ffffffffffffffffffffffffffffffffffffffff167f8c5be1e5ebec7d5bd14f71427d1e84f3dd0314c0f7b2291e5b200ac8c7c3b92560405160405180910390a45050565b600081600001549050919050565b600080611d8883611260565b90508073ffffffffffffffffffffffffffffffffffffffff168473ffffffffffffffffffffffffffffffffffffffff161480611dca5750611dc98185611aec565b5b80611e0857508373ffffffffffffffffffffffffffffffffffffffff16611df084610671565b73ffffffffffffffffffffffffffffffffffffffff16145b91505092915050565b8273ffffffffffffffffffffffffffffffffffffffff16611e3182611260565b73ffffffffffffffffffffffffffffffffffffffff1614611e87576040517f08c379a0000000000000000000000000000000000000000000000000000000008152600401611e7e90613ebb565b60405180910390fd5b600073ffffffffffffffffffffffffffffffffffffffff168273ffffffffffffffffffffffffffffffffffffffff1603611ef6576040517f08c379a0000000000000000000000000000000000000000000000000000000008152600401611eed90613f4d565b60405180910390fd5b611f03838383600161296f565b8273ffffffffffffffffffffffffffffffffffffffff16611f2382611260565b73ffffffffffffffffffffffffffffffffffffffff1614611f79576040517f08c379a0000000000000000000000000000000000000000000000000000000008152600401611f7090613ebb565b60405180910390fd5b6004600082815260200190815260200160002060006101000a81549073ffffffffffffffffffffffffffffffffffffffff02191690556001600360008573ffffffffffffffffffffffffffffffffffffffff1673ffffffffffffffffffffffffffffffffffffffff168152602001908152602001600020600082825403925050819055506001600360008473ffffffffffffffffffffffffffffffffffffffff1673ffffffffffffffffffffffffffffffffffffffff16815260200190815260200160002060008282540192505081905550816002600083815260200190815260200160002060006101000a81548173ffffffffffffffffffffffffffffffffffffffff021916908373ffffffffffffffffffffffffffffffffffffffff160217905550808273ffffffffffffffffffffffffffffffffffffffff168473ffffffffffffffffffffffffffffffffffffffff167fddf252ad1be2c89b69c2b068fc378daa952ba7f163c4a11628f55a4df523b3ef60405160405180910390a46121058383836001612975565b505050565b60006002600083815260200190815260200160002060009054906101000a900473ffffffffffffffffffffffffffffffffffffffff169050919050565b6001816000016000828254019250508190555050565b600073ffffffffffffffffffffffffffffffffffffffff168273ffffffffffffffffffffffffffffffffffffffff16036121cc576040517f08c379a00000000000000000000000000000000000000000000000000000000081526004016121c390613fb9565b60405180910390fd5b6121d58161292e565b15612215576040517f08c379a000000000000000000000000000000000000000000000000000000000815260040161220c90614025565b60405180910390fd5b61222360008383600161296f565b61222c8161292e565b1561226c576040517f08c379a000000000000000000000000000000000000000000000000000000000815260040161226390614025565b60405180910390fd5b6001600360008473ffffffffffffffffffffffffffffffffffffffff1673ffffffffffffffffffffffffffffffffffffffff16815260200190815260200160002060008282540192505081905550816002600083815260200190815260200160002060006101000a81548173ffffffffffffffffffffffffffffffffffffffff021916908373ffffffffffffffffffffffffffffffffffffffff160217905550808273ffffffffffffffffffffffffffffffffffffffff16600073ffffffffffffffffffffffffffffffffffffffff167fddf252ad1be2c89b69c2b068fc378daa952ba7f163c4a11628f55a4df523b3ef60405160405180910390a4612376600083836001612975565b5050565b6123838261292e565b6123c2576040517f08c379a00000000000000000000000000000000000000000000000000000000081526004016123b9906140b7565b60405180910390fd5b806006600084815260200190815260200160002090816123e29190614283565b507ff8e1a15aba9398e019f0b49df1a4fde98ee17ae345cb5f6b5e2c27f5033e8ce78260405161241291906131d6565b60405180910390a15050565b60008111612461576040517f08c379a0000000000000000000000000000000000000000000000000000000008152600401612458906143a1565b60405180910390fd5b600a5434146124a5576040517f08c379a000000000000000000000000000000000000000000000000000000000815260040161249c90613e29565b60405180910390fd5b6040518060a001604052808381526020013373ffffffffffffffffffffffffffffffffffffffff1681526020013073ffffffffffffffffffffffffffffffffffffffff16815260200182815260200160001515815250600c60008481526020019081526020016000206000820151816000015560208201518160010160006101000a81548173ffffffffffffffffffffffffffffffffffffffff021916908373ffffffffffffffffffffffffffffffffffffffff16021790555060408201518160020160006101000a81548173ffffffffffffffffffffffffffffffffffffffff021916908373ffffffffffffffffffffffffffffffffffffffff1602179055506060820151816003015560808201518160040160006101000a81548160ff0219169083151502179055509050506125de333084611e11565b817fb640004f1d14576d0c209e240cad0410e0d8c0c33a09375861fbadae2588a98d333084600060405161261594939291906143c1565b60405180910390a25050565b8173ffffffffffffffffffffffffffffffffffffffff168373ffffffffffffffffffffffffffffffffffffffff160361268f576040517f08c379a000000000000000000000000000000000000000000000000000000000815260040161268690614452565b60405180910390fd5b80600560008573ffffffffffffffffffffffffffffffffffffffff1673ffffffffffffffffffffffffffffffffffffffff16815260200190815260200160002060008473ffffffffffffffffffffffffffffffffffffffff1673ffffffffffffffffffffffffffffffffffffffff16815260200190815260200160002060006101000a81548160ff0219169083151502179055508173ffffffffffffffffffffffffffffffffffffffff168373ffffffffffffffffffffffffffffffffffffffff167f17307eab39ab6107e8899845ad3d59bd9653f200f220920489ca2b5937696c31836040516127809190612e57565b60405180910390a3505050565b612798848484611e11565b6127a48484848461297b565b6127e3576040517f08c379a00000000000000000000000000000000000000000000000000000000081526004016127da906144e4565b60405180910390fd5b50505050565b606060405180602001604052806000815250905090565b606061280b82611c62565b60006128156127e9565b905060008151116128355760405180602001604052806000815250612860565b8061283f84612b02565b604051602001612850929190613d01565b6040516020818303038152906040525b915050919050565b600081600001549050600081116128b4576040517f08c379a00000000000000000000000000000000000000000000000000000000081526004016128ab90614550565b60405180910390fd5b6001810382600001819055505050565b60007f01ffc9a7000000000000000000000000000000000000000000000000000000007bffffffffffffffffffffffffffffffffffffffffffffffffffffffff1916827bffffffffffffffffffffffffffffffffffffffffffffffffffffffff1916149050919050565b60008073ffffffffffffffffffffffffffffffffffffffff166129508361210a565b73ffffffffffffffffffffffffffffffffffffffff1614159050919050565b50505050565b50505050565b600061299c8473ffffffffffffffffffffffffffffffffffffffff16612bd0565b15612af5578373ffffffffffffffffffffffffffffffffffffffff1663150b7a026129c5611cad565b8786866040518563ffffffff1660e01b81526004016129e794939291906145c5565b6020604051808303816000875af1925050508015612a2357506040513d601f19601f82011682018060405250810190612a209190614626565b60015b612aa5573d8060008114612a53576040519150601f19603f3d011682016040523d82523d6000602084013e612a58565b606091505b506000815103612a9d576040517f08c379a0000000000000000000000000000000000000000000000000000000008152600401612a94906144e4565b60405180910390fd5b805181602001fd5b63150b7a0260e01b7bffffffffffffffffffffffffffffffffffffffffffffffffffffffff1916817bffffffffffffffffffffffffffffffffffffffffffffffffffffffff191614915050612afa565b600190505b949350505050565b606060006001612b1184612bf3565b01905060008167ffffffffffffffff811115612b3057612b2f61327b565b5b6040519080825280601f01601f191660200182016040528015612b625781602001600182028036833780820191505090505b509050600082602001820190505b600115612bc5578080600190039150507f3031323334353637383961626364656600000000000000000000000000000000600a86061a8153600a8581612bb957612bb8614653565b5b04945060008503612b70575b819350505050919050565b6000808273ffffffffffffffffffffffffffffffffffffffff163b119050919050565b600080600090507a184f03e93ff9f4daa797ed6e38ed64bf6a1f0100000000000000008310612c51577a184f03e93ff9f4daa797ed6e38ed64bf6a1f0100000000000000008381612c4757612c46614653565b5b0492506040810190505b6d04ee2d6d415b85acef81000000008310612c8e576d04ee2d6d415b85acef81000000008381612c8457612c83614653565b5b0492506020810190505b662386f26fc100008310612cbd57662386f26fc100008381612cb357612cb2614653565b5b0492506010810190505b6305f5e1008310612ce6576305f5e1008381612cdc57612cdb614653565b5b0492506008810190505b6127108310612d0b576127108381612d0157612d00614653565b5b0492506004810190505b60648310612d2e5760648381612d2457612d23614653565b5b0492506002810190505b600a8310612d3d576001810190505b80915050919050565b6040518060a0016040528060008152602001600073ffffffffffffffffffffffffffffffffffffffff168152602001600073ffffffffffffffffffffffffffffffffffffffff168152602001600081526020016000151581525090565b6000604051905090565b600080fd5b600080fd5b60007fffffffff0000000000000000000000000000000000000000000000000000000082169050919050565b612dec81612db7565b8114612df757600080fd5b50565b600081359050612e0981612de3565b92915050565b600060208284031215612e2557612e24612dad565b5b6000612e3384828501612dfa565b91505092915050565b60008115159050919050565b612e5181612e3c565b82525050565b6000602082019050612e6c6000830184612e48565b92915050565b600081519050919050565b600082825260208201905092915050565b60005b83811015612eac578082015181840152602081019050612e91565b60008484015250505050565b6000601f19601f8301169050919050565b6000612ed482612e72565b612ede8185612e7d565b9350612eee818560208601612e8e565b612ef781612eb8565b840191505092915050565b60006020820190508181036000830152612f1c8184612ec9565b905092915050565b6000819050919050565b612f3781612f24565b8114612f4257600080fd5b50565b600081359050612f5481612f2e565b92915050565b600060208284031215612f7057612f6f612dad565b5b6000612f7e84828501612f45565b91505092915050565b600073ffffffffffffffffffffffffffffffffffffffff82169050919050565b6000612fb282612f87565b9050919050565b612fc281612fa7565b82525050565b6000602082019050612fdd6000830184612fb9565b92915050565b612fec81612fa7565b8114612ff757600080fd5b50565b60008135905061300981612fe3565b92915050565b6000806040838503121561302657613025612dad565b5b600061303485828601612ffa565b925050602061304585828601612f45565b9150509250929050565b600081519050919050565b600082825260208201905092915050565b6000819050602082019050919050565b61308481612f24565b82525050565b600061309582612f87565b9050919050565b6130a58161308a565b82525050565b6130b481612e3c565b82525050565b60a0820160008201516130d0600085018261307b565b5060208201516130e3602085018261309c565b5060408201516130f6604085018261309c565b506060820151613109606085018261307b565b50608082015161311c60808501826130ab565b50505050565b600061312e83836130ba565b60a08301905092915050565b6000602082019050919050565b60006131528261304f565b61315c818561305a565b93506131678361306b565b8060005b8381101561319857815161317f8882613122565b975061318a8361313a565b92505060018101905061316b565b5085935050505092915050565b600060208201905081810360008301526131bf8184613147565b905092915050565b6131d081612f24565b82525050565b60006020820190506131eb60008301846131c7565b92915050565b60008060006060848603121561320a57613209612dad565b5b600061321886828701612ffa565b935050602061322986828701612ffa565b925050604061323a86828701612f45565b9150509250925092565b60006020828403121561325a57613259612dad565b5b600061326884828501612ffa565b91505092915050565b600080fd5b600080fd5b7f4e487b7100000000000000000000000000000000000000000000000000000000600052604160045260246000fd5b6132b382612eb8565b810181811067ffffffffffffffff821117156132d2576132d161327b565b5b80604052505050565b60006132e5612da3565b90506132f182826132aa565b919050565b600067ffffffffffffffff8211156133115761331061327b565b5b61331a82612eb8565b9050602081019050919050565b82818337600083830152505050565b6000613349613344846132f6565b6132db565b90508281526020810184848401111561336557613364613276565b5b613370848285613327565b509392505050565b600082601f83011261338d5761338c613271565b5b813561339d848260208601613336565b91505092915050565b600080604083850312156133bd576133bc612dad565b5b600083013567ffffffffffffffff8111156133db576133da612db2565b5b6133e785828601613378565b92505060206133f885828601612f45565b9150509250929050565b61340b81612e3c565b811461341657600080fd5b50565b60008135905061342881613402565b92915050565b6000806040838503121561344557613444612dad565b5b600061345385828601612ffa565b925050602061346485828601613419565b9150509250929050565b600067ffffffffffffffff8211156134895761348861327b565b5b61349282612eb8565b9050602081019050919050565b60006134b26134ad8461346e565b6132db565b9050828152602081018484840111156134ce576134cd613276565b5b6134d9848285613327565b509392505050565b600082601f8301126134f6576134f5613271565b5b813561350684826020860161349f565b91505092915050565b6000806000806080858703121561352957613528612dad565b5b600061353787828801612ffa565b945050602061354887828801612ffa565b935050604061355987828801612f45565b925050606085013567ffffffffffffffff81111561357a57613579612db2565b5b613586878288016134e1565b91505092959194509250565b600080604083850312156135a9576135a8612dad565b5b60006135b785828601612f45565b92505060206135c885828601612f45565b9150509250929050565b600080604083850312156135e9576135e8612dad565b5b60006135f785828601612ffa565b925050602061360885828601612ffa565b9150509250929050565b7f4e487b7100000000000000000000000000000000000000000000000000000000600052602260045260246000fd5b6000600282049050600182168061365957607f821691505b60208210810361366c5761366b613612565b5b50919050565b7f4552433732313a20617070726f76616c20746f2063757272656e74206f776e6560008201527f7200000000000000000000000000000000000000000000000000000000000000602082015250565b60006136ce602183612e7d565b91506136d982613672565b604082019050919050565b600060208201905081810360008301526136fd816136c1565b9050919050565b7f4552433732313a20617070726f76652063616c6c6572206973206e6f7420746f60008201527f6b656e206f776e6572206f7220617070726f76656420666f7220616c6c000000602082015250565b6000613760603d83612e7d565b915061376b82613704565b604082019050919050565b6000602082019050818103600083015261378f81613753565b9050919050565b7f4e487b7100000000000000000000000000000000000000000000000000000000600052601160045260246000fd5b60006137d082612f24565b91506137db83612f24565b92508282039050818111156137f3576137f2613796565b5b92915050565b600061380482612f24565b915061380f83612f24565b925082820190508082111561382757613826613796565b5b92915050565b7f4e487b7100000000000000000000000000000000000000000000000000000000600052603260045260246000fd5b600061386782612f24565b91507fffffffffffffffffffffffffffffffffffffffffffffffffffffffffffffffff820361389957613898613796565b5b600182019050919050565b7f4552433732313a2063616c6c6572206973206e6f7420746f6b656e206f776e6560008201527f72206f7220617070726f76656400000000000000000000000000000000000000602082015250565b6000613900602d83612e7d565b915061390b826138a4565b604082019050919050565b6000602082019050818103600083015261392f816138f3565b9050919050565b7f596f75206172656e277420746865206f776e6572000000000000000000000000600082015250565b600061396c601483612e7d565b915061397782613936565b602082019050919050565b6000602082019050818103600083015261399b8161395f565b9050919050565b7f596f752063616e27742077697468647261772079657400000000000000000000600082015250565b60006139d8601683612e7d565b91506139e3826139a2565b602082019050919050565b60006020820190508181036000830152613a07816139cb565b9050919050565b7f4e6f2066756e647320746f207769746864726177000000000000000000000000600082015250565b6000613a44601483612e7d565b9150613a4f82613a0e565b602082019050919050565b60006020820190508181036000830152613a7381613a37565b9050919050565b6000604082019050613a8f60008301856131c7565b613a9c60208301846131c7565b9392505050565b7f4552433732313a20696e76616c696420746f6b656e2049440000000000000000600082015250565b6000613ad9601883612e7d565b9150613ae482613aa3565b602082019050919050565b60006020820190508181036000830152613b0881613acc565b9050919050565b7f4552433732313a2061646472657373207a65726f206973206e6f74206120766160008201527f6c6964206f776e65720000000000000000000000000000000000000000000000602082015250565b6000613b6b602983612e7d565b9150613b7682613b0f565b604082019050919050565b60006020820190508181036000830152613b9a81613b5e565b9050919050565b7f4f6e6c79206d61726b6574706c616365206f776e65722063616e20757064617460008201527f65206c697374696e672070726963652e00000000000000000000000000000000602082015250565b6000613bfd603083612e7d565b9150613c0882613ba1565b604082019050919050565b60006020820190508181036000830152613c2c81613bf0565b9050919050565b7f506c65617365207375626d6974207468652061736b696e67207072696365206960008201527f6e206f7264657220746f20636f6d706c65746520746865207075726368617365602082015250565b6000613c8f604083612e7d565b9150613c9a82613c33565b604082019050919050565b60006020820190508181036000830152613cbe81613c82565b9050919050565b600081905092915050565b6000613cdb82612e72565b613ce58185613cc5565b9350613cf5818560208601612e8e565b80840191505092915050565b6000613d0d8285613cd0565b9150613d198284613cd0565b91508190509392505050565b7f4f6e6c79206974656d206f776e65722063616e20706572666f726d207468697360008201527f206f7065726174696f6e00000000000000000000000000000000000000000000602082015250565b6000613d81602a83612e7d565b9150613d8c82613d25565b604082019050919050565b60006020820190508181036000830152613db081613d74565b9050919050565b7f5072696365206d75737420626520657175616c20746f206c697374696e67207060008201527f7269636500000000000000000000000000000000000000000000000000000000602082015250565b6000613e13602483612e7d565b9150613e1e82613db7565b604082019050919050565b60006020820190508181036000830152613e4281613e06565b9050919050565b7f4552433732313a207472616e736665722066726f6d20696e636f72726563742060008201527f6f776e6572000000000000000000000000000000000000000000000000000000602082015250565b6000613ea5602583612e7d565b9150613eb082613e49565b604082019050919050565b60006020820190508181036000830152613ed481613e98565b9050919050565b7f4552433732313a207472616e7366657220746f20746865207a65726f2061646460008201527f7265737300000000000000000000000000000000000000000000000000000000602082015250565b6000613f37602483612e7d565b9150613f4282613edb565b604082019050919050565b60006020820190508181036000830152613f6681613f2a565b9050919050565b7f4552433732313a206d696e7420746f20746865207a65726f2061646472657373600082015250565b6000613fa3602083612e7d565b9150613fae82613f6d565b602082019050919050565b60006020820190508181036000830152613fd281613f96565b9050919050565b7f4552433732313a20746f6b656e20616c7265616479206d696e74656400000000600082015250565b600061400f601c83612e7d565b915061401a82613fd9565b602082019050919050565b6000602082019050818103600083015261403e81614002565b9050919050565b7f45524337323155524953746f726167653a2055524920736574206f66206e6f6e60008201527f6578697374656e7420746f6b656e000000000000000000000000000000000000602082015250565b60006140a1602e83612e7d565b91506140ac82614045565b604082019050919050565b600060208201905081810360008301526140d081614094565b9050919050565b60008190508160005260206000209050919050565b60006020601f8301049050919050565b600082821b905092915050565b6000600883026141397fffffffffffffffffffffffffffffffffffffffffffffffffffffffffffffffff826140fc565b61414386836140fc565b95508019841693508086168417925050509392505050565b6000819050919050565b600061418061417b61417684612f24565b61415b565b612f24565b9050919050565b6000819050919050565b61419a83614165565b6141ae6141a682614187565b848454614109565b825550505050565b600090565b6141c36141b6565b6141ce818484614191565b505050565b5b818110156141f2576141e76000826141bb565b6001810190506141d4565b5050565b601f82111561423757614208816140d7565b614211846140ec565b81016020851015614220578190505b61423461422c856140ec565b8301826141d3565b50505b505050565b600082821c905092915050565b600061425a6000198460080261423c565b1980831691505092915050565b60006142738383614249565b9150826002028217905092915050565b61428c82612e72565b67ffffffffffffffff8111156142a5576142a461327b565b5b6142af8254613641565b6142ba8282856141f6565b600060209050601f8311600181146142ed57600084156142db578287015190505b6142e58582614267565b86555061434d565b601f1984166142fb866140d7565b60005b82811015614323578489015182556001820191506020850194506020810190506142fe565b86831015614340578489015161433c601f891682614249565b8355505b6001600288020188555050505b505050505050565b7f5072696365206d757374206265206174206c6561737420312077656900000000600082015250565b600061438b601c83612e7d565b915061439682614355565b602082019050919050565b600060208201905081810360008301526143ba8161437e565b9050919050565b60006080820190506143d66000830187612fb9565b6143e36020830186612fb9565b6143f060408301856131c7565b6143fd6060830184612e48565b95945050505050565b7f4552433732313a20617070726f766520746f2063616c6c657200000000000000600082015250565b600061443c601983612e7d565b915061444782614406565b602082019050919050565b6000602082019050818103600083015261446b8161442f565b9050919050565b7f4552433732313a207472616e7366657220746f206e6f6e20455243373231526560008201527f63656976657220696d706c656d656e7465720000000000000000000000000000602082015250565b60006144ce603283612e7d565b91506144d982614472565b604082019050919050565b600060208201905081810360008301526144fd816144c1565b9050919050565b7f436f756e7465723a2064656372656d656e74206f766572666c6f770000000000600082015250565b600061453a601b83612e7d565b915061454582614504565b602082019050919050565b600060208201905081810360008301526145698161452d565b9050919050565b600081519050919050565b600082825260208201905092915050565b600061459782614570565b6145a1818561457b565b93506145b1818560208601612e8e565b6145ba81612eb8565b840191505092915050565b60006080820190506145da6000830187612fb9565b6145e76020830186612fb9565b6145f460408301856131c7565b8181036060830152614606818461458c565b905095945050505050565b60008151905061462081612de3565b92915050565b60006020828403121561463c5761463b612dad565b5b600061464a84828501614611565b91505092915050565b7f4e487b7100000000000000000000000000000000000000000000000000000000600052601260045260246000fdfea2646970667358221220c8d2418d2e4097b3ba89c9b4caaafffea4dafcde6a537c7acecbf9c148bc77b764736f6c63430008110033",
  "linkReferences": {},
  "deployedLinkReferences": {}
}